{"abi":[{"type":"function","name":"RESPONSE_APPROVED","inputs":[],"outputs":[{"name":"","type":"uint8","internalType":"uint8"}],"stateMutability":"view"},{"type":"function","name":"RESPONSE_INCONCLUSIVE","inputs":[],"outputs":[{"name":"","type":"uint8","internalType":"uint8"}],"stateMutability":"view"},{"type":"function","name":"RESPONSE_PENDING","inputs":[],"outputs":[{"name":"","type":"uint8","internalType":"uint8"}],"stateMutability":"view"},{"type":"function","name":"RESPONSE_REJECTED","inputs":[],"outputs":[{"name":"","type":"uint8","internalType":"uint8"}],"stateMutability":"view"},{"type":"function","name":"getAgentRequestAt","inputs":[{"name":"agentId","type":"uint256","internalType":"uint256"},{"name":"index","type":"uint256","internalType":"uint256"}],"outputs":[{"name":"requestHash","type":"bytes32","internalType":"bytes32"}],"stateMutability":"view"},{"type":"function","name":"getAgentRequestCount","inputs":[{"name":"agentId","type":"uint256","internalType":"uint256"}],"outputs":[{"name":"count","type":"uint256","internalType":"uint256"}],"stateMutability":"view"},{"type":"function","name":"getRequest","inputs":[{"name":"requestHash","type":"bytes32","internalType":"bytes32"}],"outputs":[{"name":"agentId","type":"uint256","internalType":"uint256"},{"name":"requester","type":"address","internalType":"address"},{"name":"validator","type":"address","internalType":"address"},{"name":"responded","type":"bool","internalType":"bool"}],"stateMutability":"view"},{"type":"function","name":"getResponse","inputs":[{"name":"requestHash","type":"bytes32","internalType":"bytes32"}],"outputs":[{"name":"response","type":"uint8","internalType":"uint8"},{"name":"responseURI","type":"string","internalType":"string"},{"name":"responseHash","type":"bytes32","internalType":"bytes32"},{"name":"tag","type":"string","internalType":"string"}],"stateMutability":"view"},{"type":"function","name":"validationRequest","inputs":[{"name":"validator","type":"address","internalType":"address"},{"name":"agentId","type":"uint256","internalType":"uint256"},{"name":"requestURI","type":"string","internalType":"string"},{"name":"requestHash","type":"bytes32","internalType":"bytes32"}],"outputs":[],"stateMutability":"nonpayable"},{"type":"function","name":"validationResponse","inputs":[{"name":"requestHash","type":"bytes32","internalType":"bytes32"},{"name":"response","type":"uint8","internalType":"uint8"},{"name":"responseURI","type":"string","internalType":"string"},{"name":"responseHash","type":"bytes32","internalType":"bytes32"},{"name":"tag","type":"string","internalType":"string"}],"outputs":[],"stateMutability":"nonpayable"},{"type":"event","name":"ValidationRequested","inputs":[{"name":"requestHash","type":"bytes32","indexed":true,"internalType":"bytes32"},{"name":"agentId","type":"uint256","indexed":true,"internalType":"uint256"},{"name":"validator","type":"address","indexed":true,"internalType":"address"},{"name":"requester","type":"address","indexed":false,"internalType":"address"},{"name":"requestURI","type":"string","indexed":false,"internalType":"string"}],"anonymous":false},{"type":"event","name":"ValidationResponded","inputs":[{"name":"requestHash","type":"bytes32","indexed":true,"internalType":"bytes32"},{"name":"agentId","type":"uint256","indexed":true,"internalType":"uint256"},{"name":"validator","type":"address","indexed":true,"internalType":"address"},{"name":"response","type":"uint8","indexed":false,"internalType":"uint8"},{"name":"tag","type":"string","indexed":false,"internalType":"string"}],"anonymous":false},{"type":"error","name":"AlreadyResponded","inputs":[{"name":"requestHash","type":"bytes32","internalType":"bytes32"}]},{"type":"error","name":"InvalidResponseCode","inputs":[{"name":"response","type":"uint8","internalType":"uint8"}]},{"type":"error","name":"NotDesignatedValidator","inputs":[{"name":"requestHash","type":"bytes32","internalType":"bytes32"},{"name":"caller","type":"address","internalType":"address"}]},{"type":"error","name":"RequestAlreadyExists","inputs":[{"name":"requestHash","type":"bytes32","internalType":"bytes32"}]},{"type":"error","name":"RequestNotFound","inputs":[{"name":"requestHash","type":"bytes32","internalType":"bytes32"}]},{"type":"error","name":"ZeroValidator","inputs":[]}],"bytecode":{"object":"0x6080806040523461001657610c13908161001b8239f35b5f80fdfe60806040908082526004361015610014575f80fd5b5f3560e01c9081631bf4b31b146109ce575080632fd81bd0146109a55780633d659a961461054e578063415a2bc11461048a578063824add0214610451578063a8e9d72e14610436578063aaa0e2171461041b578063aaf400c41461012b578063e4959190146101105763fb1e61ca1461008c575f80fd5b3461010c57602036600319011261010c57600435805f525f602052815f20906005820154156100f5575080546001820154600283015460069093015484519283526001600160a01b03918216602084015292169281019290925260ff1615156060820152608090f35b602490835190630d1c383160e11b82526004820152fd5b5f80fd5b503461010c575f36600319011261010c576020905160018152f35b503461010c57608036600319011261010c576001600160a01b03600435818116929083900361010c576024359167ffffffffffffffff9160443583811161010c5761017a9036906004016109e6565b6064359491871561040a57855f526020925f84526005855f2001546103f257845160e081018181108382111761031457865288815284810191338352868201908b82526101c8368787610a74565b6060840190815260808401918b835260a085019342855260c08601965f88528d5f525f8b528b5f20965187558c60019d8e8901925116916bffffffffffffffffffffffff60a01b9283825416179055600288019251169082541617905560038501915180519182116103145761023e8354610aba565b601f81116103ac575b508990601f83116001146103335760069695949392915f9183610328575b50505f19600383901b1c1916908c1b1790555b516004830155516005820155019051151560ff80198354169116179055865f5260028352835f209182549568010000000000000000871015610314578661030f946102e7927f33f894fca3e8ce8c83231a5995ff6091728012c73219e92d14380ac45c8b890f99018155610bb4565b81549060031b9089821b915f19901b1916179055848051958695338752860152840191610af2565b0390a4005b634e487b7160e01b5f52604160045260245ffd5b015190505f80610265565b95949392918c91601f19821690845f528c5f20918d5f905b828210610384575050988360069a1061036c575b505050811b019055610278565b01515f1960f88460031b161c191690555f808061035f565b9192958b9487849397999a9b9c9d015181550195019301908f9492999897969593918e61034b565b835f528a5f20601f840160051c8101918c85106103e8575b601f0160051c01908d905b8281106103dd575050610247565b5f8155018d906103cf565b90915081906103c4565b84516376f74a2d60e11b815260048101889052602490fd5b8351632808647560e11b8152600490fd5b503461010c575f36600319011261010c576020905160028152f35b503461010c575f36600319011261010c576020905160038152f35b503461010c578060031936011261010c576020906004355f526002825261047c602435825f20610bb4565b91905490519160031b1c8152f35b503461010c57602036600319011261010c57600435805f525f602052815f20600581015415610537576006015460ff1615610521575f526001602052805f209061051d60ff8354169160028401546104f060036104e960018801610b12565b9601610b12565b9061050c83519687968752608060208801526080870190610a14565b928501528382036060850152610a14565b0390f35b6024915190630d1c383160e11b82526004820152fd5b506024915190630d1c383160e11b82526004820152fd5b503461010c5760a036600319011261010c5760243560043560ff8216820361010c5760443567ffffffffffffffff811161010c576105909036906004016109e6565b60849391933567ffffffffffffffff811161010c576105b39036906004016109e6565b949091845f525f602052865f209160058301541561098d5760028301546001600160a01b0316330361096f57600683019182549260ff841661095757600160ff881610801561094a575b6109305760ff19938416600117905588519160a083019167ffffffffffffffff8311848410176103145761063a928b5260ff881684523691610a74565b6020820190815260643589830152610653368987610a74565b6060830152426080830152865f526001602052885f209260ff835116908454161783555180519067ffffffffffffffff82116103145781906106986001860154610aba565b601f81116108e0575b50602090601f8311600114610872575f92610867575b50508160011b915f199060031b1c19161760018301555b87810151600283015560038201606082015180519067ffffffffffffffff8211610314576106fc8354610aba565b601f8111610822575b50602090601f831160011461078d5760ff97947f0b7b9b71d751e1c365413a1b33bc68738caeafae1c9f183654fbbb3c0f43e4ab9997948461030f98956004956080955f92610782575b50508160011b915f199060031b1c19161790555b0151910155549688519485941684528860208501523398840191610af2565b015190505f8061074f565b90601f19831691845f5260205f20925f5b81811061080a57509460018560049560809560ff9d9a957f0b7b9b71d751e1c365413a1b33bc68738caeafae1c9f183654fbbb3c0f43e4ab9f9d9a9961030f9d9a106107f2575b505050811b019055610763565b01515f1960f88460031b161c191690555f80806107e5565b9293602060018192878601518155019501930161079e565b835f5260205f20601f840160051c8101916020851061085d575b601f0160051c01905b8181106108525750610705565b5f8155600101610845565b909150819061083c565b015190505f806106b7565b9250600185015f5260205f20905f935b601f19841685106108c5576001945083601f198116106108ad575b505050811b0160018301556106ce565b01515f1960f88460031b161c191690555f808061089d565b81810151835560209485019460019093019290910190610882565b909150600185015f5260205f20601f840160051c810160208510610929575b90849392915b601f830160051c8201811061091b5750506106a1565b5f8155859450600101610905565b50806108ff565b8951631ad601ab60e11b815260ff88166004820152602490fd5b50600360ff8816116105fd565b8951633831ba8360e21b815260048101899052602490fd5b8751637c58821960e11b815260048101879052336024820152604490fd5b8751630d1c383160e11b815260048101879052602490fd5b503461010c57602036600319011261010c576020906004355f5260028252805f20549051908152f35b3461010c575f36600319011261010c57805f60209252f35b9181601f8401121561010c5782359167ffffffffffffffff831161010c576020838186019501011161010c57565b91908251928382525f5b848110610a3e575050825f602080949584010152601f8019910116010190565b602081830181015184830182015201610a1e565b90601f8019910116810190811067ffffffffffffffff82111761031457604052565b92919267ffffffffffffffff82116103145760405191610a9e601f8201601f191660200184610a52565b82948184528183011161010c578281602093845f960137010152565b90600182811c92168015610ae8575b6020831014610ad457565b634e487b7160e01b5f52602260045260245ffd5b91607f1691610ac9565b908060209392818452848401375f828201840152601f01601f1916010190565b9060405191825f8254610b2481610aba565b908184526020946001916001811690815f14610b925750600114610b54575b505050610b5292500383610a52565b565b5f90815285812095935091905b818310610b7a575050610b5293508201015f8080610b43565b85548884018501529485019487945091830191610b61565b92505050610b5294925060ff191682840152151560051b8201015f8080610b43565b8054821015610bc9575f5260205f2001905f90565b634e487b7160e01b5f52603260045260245ffdfea26469706673582212200f721a75bf5b30b2edaf140aeb5eecc25c68359c6a4d6a1dd309713f9d459f4664736f6c63430008180033","linkReferences":{}},"methodIdentifiers":{"RESPONSE_APPROVED()":"e4959190","RESPONSE_INCONCLUSIVE()":"a8e9d72e","RESPONSE_PENDING()":"1bf4b31b","RESPONSE_REJECTED()":"aaa0e217","getAgentRequestAt(uint256,uint256)":"824add02","getAgentRequestCount(uint256)":"2fd81bd0","getRequest(bytes32)":"fb1e61ca","getResponse(bytes32)":"415a2bc1","validationRequest(address,uint256,string,bytes32)":"aaf400c4","validationResponse(bytes32,uint8,string,bytes32,string)":"3d659a96"},"id":23}