{"abi":[{"type":"constructor","inputs":[],"stateMutability":"nonpayable"},{"type":"function","name":"getFeedback","inputs":[{"name":"feedbackId","type":"uint256","internalType":"uint256"}],"outputs":[{"name":"agentId","type":"uint256","internalType":"uint256"},{"name":"client","type":"address","internalType":"address"},{"name":"value","type":"int128","internalType":"int128"},{"name":"decimals","type":"uint8","internalType":"uint8"},{"name":"revoked","type":"bool","internalType":"bool"}],"stateMutability":"view"},{"type":"function","name":"getSummary","inputs":[{"name":"agentId","type":"uint256","internalType":"uint256"},{"name":"clients","type":"address[]","internalType":"address[]"},{"name":"tag1","type":"string","internalType":"string"},{"name":"tag2","type":"string","internalType":"string"}],"outputs":[{"name":"count","type":"uint256","internalType":"uint256"},{"name":"summaryValue","type":"int256","internalType":"int256"},{"name":"decimals","type":"uint8","internalType":"uint8"}],"stateMutability":"view"},{"type":"function","name":"giveFeedback","inputs":[{"name":"agentId","type":"uint256","internalType":"uint256"},{"name":"value","type":"int128","internalType":"int128"},{"name":"decimals","type":"uint8","internalType":"uint8"},{"name":"tag1","type":"string","internalType":"string"},{"name":"tag2","type":"string","internalType":"string"},{"name":"endpoint","type":"string","internalType":"string"},{"name":"feedbackURI","type":"string","internalType":"string"},{"name":"feedbackHash","type":"bytes32","internalType":"bytes32"}],"outputs":[],"stateMutability":"nonpayable"},{"type":"function","name":"revokeFeedback","inputs":[{"name":"feedbackId","type":"uint256","internalType":"uint256"}],"outputs":[],"stateMutability":"nonpayable"},{"type":"function","name":"totalFeedback","inputs":[],"outputs":[{"name":"count","type":"uint256","internalType":"uint256"}],"stateMutability":"view"},{"type":"event","name":"FeedbackGiven","inputs":[{"name":"feedbackId","type":"uint256","indexed":true,"internalType":"uint256"},{"name":"agentId","type":"uint256","indexed":true,"internalType":"uint256"},{"name":"client","type":"address","indexed":true,"internalType":"address"},{"name":"value","type":"int128","indexed":false,"internalType":"int128"},{"name":"decimals","type":"uint8","indexed":false,"internalType":"uint8"},{"name":"tag1","type":"string","indexed":false,"internalType":"string"},{"name":"tag2","type":"string","indexed":false,"internalType":"string"}],"anonymous":false},{"type":"event","name":"FeedbackRevoked","inputs":[{"name":"feedbackId","type":"uint256","indexed":true,"internalType":"uint256"},{"name":"agentId","type":"uint256","indexed":true,"internalType":"uint256"},{"name":"client","type":"address","indexed":true,"internalType":"address"}],"anonymous":false},{"type":"error","name":"AlreadyRevoked","inputs":[{"name":"feedbackId","type":"uint256","internalType":"uint256"}]},{"type":"error","name":"FeedbackNotFound","inputs":[{"name":"feedbackId","type":"uint256","internalType":"uint256"}]},{"type":"error","name":"NotFeedbackOwner","inputs":[{"name":"feedbackId","type":"uint256","internalType":"uint256"},{"name":"caller","type":"address","internalType":"address"}]},{"type":"error","name":"ReentrancyGuardReentrantCall","inputs":[]}],"bytecode":{"object":"0x6080806040523461003e5760017f9b779b17422d0df92223018b32b4d1fa46e071723d6817e2486d003becc55f005560015f55610e2e90816100438239f35b5f80fdfe6080806040526004361015610012575f80fd5b5f3560e01c9081631106a38214610aa4575080631355c311146109c95780633c036a7e146101fc57806381bbba58146100935763a2550e8414610053575f80fd5b3461008f575f36600319011261008f575f545f19810190811161007b57602090604051908152f35b634e487b7160e01b5f52601160045260245ffd5b5f80fd5b3461008f57608036600319011261008f576001600160401b0360243581811161008f573660238201121561008f578181600401351161008f57366024826004013560051b8301011161008f5760443582811161008f576100f7903690600401610b37565b909260643590811161008f579061011384923690600401610b37565b92905f945f935f956004355f52600260205260405f20935f925f968654965b8789106101535760608c60ff8d8d6040519384526020840152166040820152f35b90919293949596979a986101678c83610c02565b90549060031b1c5f52600160205260405f2060ff6009820154166101f15761019b8787878760048e013560248f0187610ced565b156101f15787156101db575b60020154600f0b905f828201928312911290801582169115161761007b57600180919a019b5b019796959493929190610132565b600281015460801c60ff169b50600197506101a7565b50989a6001906101cd565b3461008f5761010036600319011261008f5760243580600f0b810361008f576044359060ff8216820361008f576064356001600160401b03811161008f57610248903690600401610b37565b6084356001600160401b03811161008f57610267903690600401610b37565b94909360a4356001600160401b03811161008f57610289903690600401610b37565b60c4959195356001600160401b03811161008f576102ab903690600401610b37565b969060027f9b779b17422d0df92223018b32b4d1fa46e071723d6817e2486d003becc55f0054146109b75760027f9b779b17422d0df92223018b32b4d1fa46e071723d6817e2486d003becc55f00555f5497600189015f5560405193846101608101106001600160401b036101608701111761068757610384936103789161036c8d8f6103608e60ff8f8f60408f91610160830182526004358352336020840152600f0b9101521660608d015236908d610b85565b60808b01523691610b85565b60a08801523691610b85565b60c08501523691610b85565b60e082015260e435610100820152426101208201525f610140820152855f52600160205260405f20815181556001810160018060a01b036020840151166bffffffffffffffffffffffff60a01b82541617905560028101604083015181546fffffffffffffffffffffffffffffffff60ff60801b606087015160801b1692169070ffffffffffffffffffffffffffffffffff19161717905560808201518051906001600160401b0382116106875781906104416003850154610bca565b601f8111610967575b50602090601f83116001146108f9575f926108ee575b50508160011b915f199060031b1c19161760038201555b60a08201518051906001600160401b03821161068757819061049c6004850154610bca565b601f811161089e575b50602090601f8311600114610830575f92610825575b50508160011b915f199060031b1c19161760048201555b60c08201518051906001600160401b0382116106875781906104f76005850154610bca565b601f81116107d5575b50602090601f8311600114610767575f9261075c575b50508160011b915f199060031b1c19161760058201555b60e08201518051906001600160401b038211610687576105506006840154610bca565b601f8111610718575b50602090601f83116001146106a657918061014094926009945f9261069b575b50508160011b915f199060031b1c19161760068201555b6101008401516007820155610120840151600882015501910151151560ff801983541691161790556004355f52600260205260405f209081549068010000000000000000821015610687577fe4f91c79b00dc844b379da32f84422373758c467f68eb4b694bd316fe6b4df31956106138361065e95600161064b96018155610c02565b81549060031b908a821b915f19901b191617905560ff604051968796600f0b8752166020860152608060408601526080850191610c2b565b8281036060840152339760043597610c2b565b0390a460017f9b779b17422d0df92223018b32b4d1fa46e071723d6817e2486d003becc55f0055005b634e487b7160e01b5f52604160045260245ffd5b015190508d80610579565b90600684015f5260205f20915f5b601f1985168110610700575092610140949260019260099583601f198116106106e8575b505050811b016006820155610590565b01515f1960f88460031b161c191690558d80806106d8565b919260206001819286850151815501940192016106b4565b600684015f5260205f20601f840160051c810160208510610755575b601f830160051c8201811061074a575050610559565b5f8155600101610734565b5080610734565b015190508b80610516565b9250600584015f5260205f20905f935b601f19841685106107ba576001945083601f198116106107a2575b505050811b01600582015561052d565b01515f1960f88460031b161c191690558b8080610792565b81810151835560209485019460019093019290910190610777565b909150600584015f5260205f20601f840160051c81016020851061081e575b90849392915b601f830160051c82018110610810575050610500565b5f81558594506001016107fa565b50806107f4565b015190508b806104bb565b9250600484015f5260205f20905f935b601f1984168510610883576001945083601f1981161061086b575b505050811b0160048201556104d2565b01515f1960f88460031b161c191690558b808061085b565b81810151835560209485019460019093019290910190610840565b909150600484015f5260205f20601f840160051c8101602085106108e7575b90849392915b601f830160051c820181106108d95750506104a5565b5f81558594506001016108c3565b50806108bd565b015190508b80610460565b9250600384015f5260205f20905f935b601f198416851061094c576001945083601f19811610610934575b505050811b016003820155610477565b01515f1960f88460031b161c191690558b8080610924565b81810151835560209485019460019093019290910190610909565b909150600384015f5260205f20601f840160051c8101602085106109b0575b90849392915b601f830160051c820181106109a257505061044a565b5f815585945060010161098c565b5080610986565b604051633ee5aeb560e01b8152600490fd5b3461008f57602036600319011261008f5760043580158015610a99575b610a8257805f52600160205260405f209060018060a01b036001830154163303610a645760098201805460ff8116610a4b5760ff19166001179055905433917febb6de440246ec68f201f4eecc191e1922543bb7f53db1be9d59a96dc679affe5f80a4005b60405163e80455f560e01b815260048101849052602490fd5b604490604051906322e5379560e21b82526004820152336024820152fd5b60249060405190621b0c4160e91b82526004820152fd5b505f548110156109e6565b3461008f57602036600319011261008f576004359081158015610b2c575b610b1957505f52600160205260a060405f2080549060ff600180851b036001830154169181600960028301549201541692604051948552602085015280600f0b604085015260801c16606083015215156080820152f35b602491621b0c4160e91b82526004820152fd5b505f54821015610ac2565b9181601f8401121561008f578235916001600160401b03831161008f576020838186019501011161008f57565b90601f801991011681019081106001600160401b0382111761068757604052565b9291926001600160401b0382116106875760405191610bae601f8201601f191660200184610b64565b82948184528183011161008f578281602093845f960137010152565b90600182811c92168015610bf8575b6020831014610be457565b634e487b7160e01b5f52602260045260245ffd5b91607f1691610bd9565b8054821015610c17575f5260205f2001905f90565b634e487b7160e01b5f52603260045260245ffd5b908060209392818452848401375f828201840152601f01601f1916010190565b9060405191825f8254610c5d81610bca565b908184526020946001916001811690815f14610ccb5750600114610c8d575b505050610c8b92500383610b64565b565b5f90815285812095935091905b818310610cb3575050610c8b93508201015f8080610c7c565b85548884018501529485019487945091830191610c9a565b92505050610c8b94925060ff191682840152151560051b8201015f8080610c7c565b95949391908115159182610d90575b5050610d87578015159182610d65575b5050610d5e578115159283610d2c575b505050610d2857600190565b5f90565b610d4d9293506004610d3e9101610c4b565b60208151910120923691610b85565b6020815191012014155f8080610d1c565b5050505f90565b610d77919250610d3e60038701610c4b565b6020815191012014155f80610d0c565b50505050505f90565b6001880154610da993506001600160a01b031691610db1565b155f80610cfc565b9190915f5b838110610dc557505050505f90565b600581901b8201356001600160a01b038181169182900361008f57841614610def57600101610db6565b5050505060019056fea26469706673582212202cc2b95b0f11e9612a034d39eb56e81ffec3f61a65c6962c4ff823fe8d525bc064736f6c63430008180033","linkReferences":{}},"methodIdentifiers":{"getFeedback(uint256)":"1106a382","getSummary(uint256,address[],string,string)":"81bbba58","giveFeedback(uint256,int128,uint8,string,string,string,string,bytes32)":"3c036a7e","revokeFeedback(uint256)":"1355c311","totalFeedback()":"a2550e84"},"id":22}