{"abi":[{"type":"constructor","inputs":[],"stateMutability":"nonpayable"},{"type":"function","name":"approve","inputs":[{"name":"to","type":"address","internalType":"address"},{"name":"tokenId","type":"uint256","internalType":"uint256"}],"outputs":[],"stateMutability":"nonpayable"},{"type":"function","name":"balanceOf","inputs":[{"name":"owner","type":"address","internalType":"address"}],"outputs":[{"name":"","type":"uint256","internalType":"uint256"}],"stateMutability":"view"},{"type":"function","name":"getAgentWallet","inputs":[{"name":"agentId","type":"uint256","internalType":"uint256"}],"outputs":[{"name":"wallet","type":"address","internalType":"address"}],"stateMutability":"view"},{"type":"function","name":"getApproved","inputs":[{"name":"tokenId","type":"uint256","internalType":"uint256"}],"outputs":[{"name":"","type":"address","internalType":"address"}],"stateMutability":"view"},{"type":"function","name":"getMetadata","inputs":[{"name":"agentId","type":"uint256","internalType":"uint256"},{"name":"key","type":"string","internalType":"string"}],"outputs":[{"name":"value","type":"bytes","internalType":"bytes"}],"stateMutability":"view"},{"type":"function","name":"isApprovedForAll","inputs":[{"name":"owner","type":"address","internalType":"address"},{"name":"operator","type":"address","internalType":"address"}],"outputs":[{"name":"","type":"bool","internalType":"bool"}],"stateMutability":"view"},{"type":"function","name":"name","inputs":[],"outputs":[{"name":"","type":"string","internalType":"string"}],"stateMutability":"view"},{"type":"function","name":"ownerOf","inputs":[{"name":"tokenId","type":"uint256","internalType":"uint256"}],"outputs":[{"name":"","type":"address","internalType":"address"}],"stateMutability":"view"},{"type":"function","name":"register","inputs":[{"name":"agentURI","type":"string","internalType":"string"}],"outputs":[{"name":"agentId","type":"uint256","internalType":"uint256"}],"stateMutability":"nonpayable"},{"type":"function","name":"safeTransferFrom","inputs":[{"name":"from","type":"address","internalType":"address"},{"name":"to","type":"address","internalType":"address"},{"name":"tokenId","type":"uint256","internalType":"uint256"}],"outputs":[],"stateMutability":"nonpayable"},{"type":"function","name":"safeTransferFrom","inputs":[{"name":"from","type":"address","internalType":"address"},{"name":"to","type":"address","internalType":"address"},{"name":"tokenId","type":"uint256","internalType":"uint256"},{"name":"data","type":"bytes","internalType":"bytes"}],"outputs":[],"stateMutability":"nonpayable"},{"type":"function","name":"setAgentWallet","inputs":[{"name":"agentId","type":"uint256","internalType":"uint256"},{"name":"wallet","type":"address","internalType":"address"}],"outputs":[],"stateMutability":"nonpayable"},{"type":"function","name":"setApprovalForAll","inputs":[{"name":"operator","type":"address","internalType":"address"},{"name":"approved","type":"bool","internalType":"bool"}],"outputs":[],"stateMutability":"nonpayable"},{"type":"function","name":"setMetadata","inputs":[{"name":"agentId","type":"uint256","internalType":"uint256"},{"name":"key","type":"string","internalType":"string"},{"name":"value","type":"bytes","internalType":"bytes"}],"outputs":[],"stateMutability":"nonpayable"},{"type":"function","name":"supportsInterface","inputs":[{"name":"interfaceId","type":"bytes4","internalType":"bytes4"}],"outputs":[{"name":"","type":"bool","internalType":"bool"}],"stateMutability":"view"},{"type":"function","name":"symbol","inputs":[],"outputs":[{"name":"","type":"string","internalType":"string"}],"stateMutability":"view"},{"type":"function","name":"tokenURI","inputs":[{"name":"tokenId","type":"uint256","internalType":"uint256"}],"outputs":[{"name":"","type":"string","internalType":"string"}],"stateMutability":"view"},{"type":"function","name":"totalAgents","inputs":[],"outputs":[{"name":"count","type":"uint256","internalType":"uint256"}],"stateMutability":"view"},{"type":"function","name":"transferFrom","inputs":[{"name":"from","type":"address","internalType":"address"},{"name":"to","type":"address","internalType":"address"},{"name":"tokenId","type":"uint256","internalType":"uint256"}],"outputs":[],"stateMutability":"nonpayable"},{"type":"event","name":"AgentRegistered","inputs":[{"name":"agentId","type":"uint256","indexed":true,"internalType":"uint256"},{"name":"owner","type":"address","indexed":true,"internalType":"address"},{"name":"agentURI","type":"string","indexed":false,"internalType":"string"}],"anonymous":false},{"type":"event","name":"AgentWalletSet","inputs":[{"name":"agentId","type":"uint256","indexed":true,"internalType":"uint256"},{"name":"wallet","type":"address","indexed":true,"internalType":"address"}],"anonymous":false},{"type":"event","name":"Approval","inputs":[{"name":"owner","type":"address","indexed":true,"internalType":"address"},{"name":"approved","type":"address","indexed":true,"internalType":"address"},{"name":"tokenId","type":"uint256","indexed":true,"internalType":"uint256"}],"anonymous":false},{"type":"event","name":"ApprovalForAll","inputs":[{"name":"owner","type":"address","indexed":true,"internalType":"address"},{"name":"operator","type":"address","indexed":true,"internalType":"address"},{"name":"approved","type":"bool","indexed":false,"internalType":"bool"}],"anonymous":false},{"type":"event","name":"BatchMetadataUpdate","inputs":[{"name":"_fromTokenId","type":"uint256","indexed":false,"internalType":"uint256"},{"name":"_toTokenId","type":"uint256","indexed":false,"internalType":"uint256"}],"anonymous":false},{"type":"event","name":"MetadataSet","inputs":[{"name":"agentId","type":"uint256","indexed":true,"internalType":"uint256"},{"name":"key","type":"string","indexed":false,"internalType":"string"}],"anonymous":false},{"type":"event","name":"MetadataUpdate","inputs":[{"name":"_tokenId","type":"uint256","indexed":false,"internalType":"uint256"}],"anonymous":false},{"type":"event","name":"Transfer","inputs":[{"name":"from","type":"address","indexed":true,"internalType":"address"},{"name":"to","type":"address","indexed":true,"internalType":"address"},{"name":"tokenId","type":"uint256","indexed":true,"internalType":"uint256"}],"anonymous":false},{"type":"error","name":"ERC721IncorrectOwner","inputs":[{"name":"sender","type":"address","internalType":"address"},{"name":"tokenId","type":"uint256","internalType":"uint256"},{"name":"owner","type":"address","internalType":"address"}]},{"type":"error","name":"ERC721InsufficientApproval","inputs":[{"name":"operator","type":"address","internalType":"address"},{"name":"tokenId","type":"uint256","internalType":"uint256"}]},{"type":"error","name":"ERC721InvalidApprover","inputs":[{"name":"approver","type":"address","internalType":"address"}]},{"type":"error","name":"ERC721InvalidOperator","inputs":[{"name":"operator","type":"address","internalType":"address"}]},{"type":"error","name":"ERC721InvalidOwner","inputs":[{"name":"owner","type":"address","internalType":"address"}]},{"type":"error","name":"ERC721InvalidReceiver","inputs":[{"name":"receiver","type":"address","internalType":"address"}]},{"type":"error","name":"ERC721InvalidSender","inputs":[{"name":"sender","type":"address","internalType":"address"}]},{"type":"error","name":"ERC721NonexistentToken","inputs":[{"name":"tokenId","type":"uint256","internalType":"uint256"}]},{"type":"error","name":"EmptyKey","inputs":[]},{"type":"error","name":"EmptyURI","inputs":[]},{"type":"error","name":"NotAgentOwner","inputs":[{"name":"agentId","type":"uint256","internalType":"uint256"},{"name":"caller","type":"address","internalType":"address"}]},{"type":"error","name":"ReentrancyGuardReentrantCall","inputs":[]}],"bytecode":{"object":"0x6080346200031a576001600160401b03906040908082018381118282101762000238578252601781526020927f4d6f6e6d6f757468204167656e74204964656e7469747900000000000000000084830152825193838501858110838211176200023857845260048552631350525160e21b8186015282519082821162000238575f54916001948584811c941680156200030f575b8385101462000219578190601f94858111620002bc575b50839085831160011462000258575f926200024c575b50505f19600383901b1c191690851b175f555b8551928311620002385783548481811c911680156200022d575b828210146200021957828111620001d1575b50809183116001146200016c5750819293945f9262000160575b50505f19600383901b1c191690821b1781555b807f9b779b17422d0df92223018b32b4d1fa46e071723d6817e2486d003becc55f0055600755516114ea90816200031f8239f35b015190505f8062000119565b90601f19831695845f52825f20925f905b888210620001b95750508385969710620001a0575b505050811b0181556200012c565b01515f1960f88460031b161c191690555f808062000192565b8087859682949686015181550195019301906200017d565b845f52815f208380860160051c8201928487106200020f575b0160051c019085905b82811062000203575050620000ff565b5f8155018590620001f3565b92508192620001ea565b634e487b7160e01b5f52602260045260245ffd5b90607f1690620000ed565b634e487b7160e01b5f52604160045260245ffd5b015190505f80620000c0565b90879350601f198316915f8052855f20925f5b87828210620002a557505084116200028c575b505050811b015f55620000d3565b01515f1960f88460031b161c191690555f80806200027e565b8385015186558b979095019493840193016200026b565b9091505f8052835f208580850160051c82019286861062000305575b918991869594930160051c01915b828110620002f6575050620000aa565b5f8155859450899101620002e6565b92508192620002d8565b93607f169362000093565b5f80fdfe608060409080825260049081361015610016575f80fd5b5f3560e01c90816233950914610def5750806301ffc9a714610d6757806306fdde0314610cba578063081812fc14610c81578063095ea7b314610ba557806323b872dd14610b8e57806342842e0e14610b60578063466648da146109815780636352211e14610951578063636d2f64146108b157806370a082311461085c57806395d89b4114610779578063a22cb465146106c1578063b88d4fde14610654578063c505371214610616578063c87b56dd146105e3578063cb4799f214610562578063e985e9c5146105145763f2c298be146100f0575f80fd5b3461048c576020918260031936011261048c5767ffffffffffffffff823581811161048c576101229036908501610ec8565b907f9b779b17422d0df92223018b32b4d1fa46e071723d6817e2486d003becc55f00916002835414610504576002835580156104f45760075495600194858801600755865161017081610ef6565b5f815233156104de575f89815260028b52889020546001600160a01b0316801515908a90826104ad575b335f5260038d528a5f208a8154019055815f5260028d528a5f20336001600160601b0360a01b82541617905533907fddf252ad1be2c89b69c2b068fc378daa952ba7f163c4a11628f55a4df523b3ef5f80a4610497578990333b610378575b5050610206368486610f64565b885f5260068a52875f2092815192831161036557509082916102348261022e8c979654610f9a565b856111f9565b8a90601f83116001146102d657827f0d063c6022bff16d09991a9f91882ffa112f5fb2529136f65eb4c77bbd047e4395936102c19593610289935f926102cb575b50508160011b915f199060031b1c19161790565b90555b7ff8e1a15aba9398e019f0b49df1a4fde98ee17ae345cb5f6b5e2c27f5033e8ce78a8951868152a18751918291339683611248565b0390a35551908152f35b015190505f80610275565b8892918c91601f198416865f52835f20935f905b82821061034b575050917f0d063c6022bff16d09991a9f91882ffa112f5fb2529136f65eb4c77bbd047e4397959391856102c198969410610333575b505050811b01905561028c565b01515f1960f88460031b161c191690555f8080610326565b8484015186558f9a508d979095019493840193018f6102ea565b604190634e487b7160e01b5f525260245ffd5b83999796959493916103b8918a5180938192630a85bd0160e11b9687845233908401525f60248401528c6044840152608060648401526084830190610e42565b03815f335af15f9181610453575b50610421578a8a8a3d15610419573d926103df84610f48565b936103ec83519586610f26565b84523d5f8286013e5b83519384610413578251633250574960e11b81523381860152602490fd5b84925001fd5b6060926103f5565b63ffffffff60e09a94959697989a1b160361043d57885f6101f9565b8651633250574960e11b81523381840152602490fd5b9091508b81813d8311610490575b61046b8183610f26565b8101031261048c57516001600160e01b03198116810361048c57905f6103c6565b5f80fd5b503d610461565b87516339e3563760e11b81525f81850152602490fd5b5f82815260046020526040812080546001600160a01b031916905581815260038e528b902080545f1901905561019a565b8751633250574960e11b81525f81850152602490fd5b845163683d806b60e11b81528690fd5b8451633ee5aeb560e01b81528690fd5b823461048c578060031936011261048c57602090610530610e67565b610538610e7d565b9060018060a01b038091165f5260058452825f2091165f52825260ff815f20541690519015158152f35b503461048c578160031936011261048c576024359167ffffffffffffffff831161048c576105cd6105c692602061059f6105df9636908401610ec8565b92355f5260098252845f208386519485938437820190815203019020825193848092610fd2565b0383610f26565b51918291602083526020830190610e42565b0390f35b50903461048c57602036600319011261048c576106036105df923561126f565b9051918291602083526020830190610e42565b50903461048c575f36600319011261048c576007545f19810191908211610641576020925051908152f35b601183634e487b7160e01b5f525260245ffd5b503461048c57608036600319011261048c5761066e610e67565b610676610e7d565b6044359060643567ffffffffffffffff811161048c573660238201121561048c576106bf948160246106ad93369301359101610f64565b926106b9838383611063565b3361136b565b005b50903461048c578060031936011261048c576106db610e67565b906024359182151580930361048c573315610763576001600160a01b031692831561074e5750335f526005602052805f20835f52602052805f2060ff1981541660ff8416179055519081527f17307eab39ab6107e8899845ad3d59bd9653f200f220920489ca2b5937696c3160203392a3005b836024925191630b61174360e31b8352820152fd5b815163a9fbf51f60e01b81525f81860152602490fd5b823461048c575f36600319011261048c578051905f9082600192600154936107a085610f9a565b90818452602095866001821691825f1461083a5750506001146107df575b50506105df92916107d0910385610f26565b51928284938452830190610e42565b9085925060015f527fb10e2d527612073b26eecdfd717e6a320cf44b4afac2b0732d9fcbe2b7fa0cf6915f925b82841061082257505050820101816107d06107be565b8054848a01860152889550879490930192810161080c565b60ff19168682015292151560051b850190920192508391506107d090506107be565b50903461048c57602036600319011261048c576001600160a01b0361087f610e67565b16801561089b57602092505f5260038252805f20549051908152f35b81516322718ad960e21b81525f81850152602490fd5b503461048c578160031936011261048c578035906108cd610e7d565b926108d783611331565b6001600160a01b03929033908416036109305750825f5260086020525f20921691826001600160601b0360a01b8254161790557fc1b62bacf2a2f4363c2190e00f2370f3b563001a0c56c73eae69619e58e9624c5f80a3005b81516304ffad3160e21b815290810184815233602082015281906040010390fd5b50903461048c57602036600319011261048c5761097060209235611331565b90516001600160a01b039091168152f35b503461048c57606036600319011261048c5780359067ffffffffffffffff9060243582811161048c576109b79036908301610ec8565b92909160443582811161048c576109d19036908301610ec8565b91906109dc87611331565b336001600160a01b0390911603610b3e578515610b2f57865f526020916009602052885f2060208a5180928a8a83378a8201908152030190209484116103655750610a3183610a2b8654610f9a565b866111f9565b5f91601f8411600114610aa35750827e25607c3684ab2206e394d59de27f291202c0c51811219084fca969b6ba48b8979893610a939593610a86935f92610a985750508160011b915f199060031b1c19161790565b90555b5192839283611248565b0390a2005b013590505f80610275565b91601f198416855f5260205f20935f905b828210610b175750509260019285927e25607c3684ab2206e394d59de27f291202c0c51811219084fca969b6ba48b89a9b96610a93989610610afe575b505050811b019055610a89565b01355f19600384901b60f8161c191690555f8080610af1565b80600185978294968801358155019601930190610ab4565b508651630f35a7eb60e21b8152fd5b5086516304ffad3160e21b815290810186815233602082015281906040010390fd5b823461048c576106bf90610b7336610e93565b91925192610b8084610ef6565b5f84526106b9838383611063565b3461048c576106bf610b9f36610e93565b91611063565b50903461048c578060031936011261048c57610bbf610e67565b91602435610bcc81611331565b33151580610c6e575b80610c47575b610c31576001600160a01b039485169482918691167f8c5be1e5ebec7d5bd14f71427d1e84f3dd0314c0f7b2291e5b200ac8c7c3b9255f80a45f526020525f20906001600160601b0360a01b8254161790555f80f35b835163a9fbf51f60e01b81523381850152602490fd5b5060018060a01b0381165f526005602052835f20335f5260205260ff845f20541615610bdb565b506001600160a01b038116331415610bd5565b50903461048c57602036600319011261048c578160209235610ca281611331565b505f52825260018060a01b03815f2054169051908152f35b823461048c575f36600319011261048c578051905f90825f5492610cdd84610f9a565b808352602094600190866001821691825f1461083a575050600114610d0e5750506105df92916107d0910385610f26565b5f80805286935091907f290decd9548b62a8d60345a988386fc84ba6bc95484008f6362f93160ef3e5635b828410610d4f57505050820101816107d06107be565b8054848a018601528895508794909301928101610d39565b503461048c57602036600319011261048c573563ffffffff60e01b811680910361048c57602091632483248360e11b8214918215610da9575b50519015158152f35b9091506380ac58cd60e01b8114908115610dde575b8115610dcd575b50905f610da0565b6301ffc9a760e01b1490505f610dc5565b635b5e139f60e01b81149150610dbe565b9050823461048c57602036600319011261048c5791355f90815260086020908152929020546001600160a01b03168152f35b5f5b838110610e325750505f910152565b8181015183820152602001610e23565b90602091610e5b81518092818552858086019101610e21565b601f01601f1916010190565b600435906001600160a01b038216820361048c57565b602435906001600160a01b038216820361048c57565b606090600319011261048c576001600160a01b0390600435828116810361048c5791602435908116810361048c579060443590565b9181601f8401121561048c5782359167ffffffffffffffff831161048c576020838186019501011161048c57565b6020810190811067ffffffffffffffff821117610f1257604052565b634e487b7160e01b5f52604160045260245ffd5b90601f8019910116810190811067ffffffffffffffff821117610f1257604052565b67ffffffffffffffff8111610f1257601f01601f191660200190565b929192610f7082610f48565b91610f7e6040519384610f26565b82948184528183011161048c578281602093845f960137010152565b90600182811c92168015610fc8575b6020831014610fb457565b634e487b7160e01b5f52602260045260245ffd5b91607f1691610fa9565b80545f9392610fe082610f9a565b918282526020936001916001811690815f146110445750600114611006575b5050505050565b90939495505f92919252835f2092845f945b83861061103057505050500101905f80808080610fff565b805485870183015294019385908201611018565b60ff19168685015250505090151560051b010191505f80808080610fff565b6001600160a01b0391821692909183156111e157815f52602092600284528260409583875f205416953315158061114f575b506002908761111e575b825f5260038152885f2060018154019055835f5252865f20816001600160601b0360a01b825416179055857fddf252ad1be2c89b69c2b068fc378daa952ba7f163c4a11628f55a4df523b3ef5f80a416928383036110fd5750505050565b6064945051926364283d7b60e01b8452600484015260248301526044820152fd5b5f84815260046020526040812080546001600160a01b03191690558881526003825289902080545f1901905561109f565b91925090806111a0575b15611167579084915f611095565b868587611184576024915190637e27328960e01b82526004820152fd5b604491519063177e802f60e01b82523360048301526024820152fd5b5033861480156111c5575b806111595750845f52600481523384885f20541614611159565b50855f5260058152865f20335f52815260ff875f2054166111ab565b604051633250574960e11b81525f6004820152602490fd5b601f821161120657505050565b5f5260205f20906020601f840160051c8301931061123e575b601f0160051c01905b818110611233575050565b5f8155600101611228565b909150819061121f565b90918060409360208452816020850152848401375f828201840152601f01601f1916010190565b61127881611331565b506040906112a8825161128a81610ef6565b5f8152825f52602090600682526112af855f20865194858092610fd2565b0384610f26565b80519283156113285780516112e957505050506112cb90611331565b505f81516112d881610ef6565b52516112e381610ef6565b5f815290565b9091926113259450611305819651968794868087019101610e21565b820161131982518093868085019101610e21565b01038084520182610f26565b90565b94505050505090565b5f818152600260205260409020546001600160a01b0316908115611353575090565b60249060405190637e27328960e01b82526004820152fd5b9293909193843b61137d575050505050565b604051630a85bd0160e11b8082526001600160a01b0395861660048301529385166024820152604481019190915260806064820152602095949093169392908590829081906113d0906084830190610e42565b03815f885af15f9181611474575b5061143d575050503d5f14611435573d916113f883610f48565b926114066040519485610f26565b83523d5f8285013e5b8251928361143057604051633250574960e11b815260048101849052602490fd5b019050fd5b60609161140f565b9193506001600160e01b03199091160361145c57505f80808080610fff565b60249060405190633250574960e11b82526004820152fd5b9091508581813d83116114ad575b61148c8183610f26565b8101031261048c57516001600160e01b03198116810361048c57905f6113de565b503d61148256fea26469706673582212204a27acf18eb619315531fa7c8fbaf7ed3ecbf163e3a8c5b42b65421090116e0664736f6c63430008180033","linkReferences":{}},"methodIdentifiers":{"approve(address,uint256)":"095ea7b3","balanceOf(address)":"70a08231","getAgentWallet(uint256)":"00339509","getApproved(uint256)":"081812fc","getMetadata(uint256,string)":"cb4799f2","isApprovedForAll(address,address)":"e985e9c5","name()":"06fdde03","ownerOf(uint256)":"6352211e","register(string)":"f2c298be","safeTransferFrom(address,address,uint256)":"42842e0e","safeTransferFrom(address,address,uint256,bytes)":"b88d4fde","setAgentWallet(uint256,address)":"636d2f64","setApprovalForAll(address,bool)":"a22cb465","setMetadata(uint256,string,bytes)":"466648da","supportsInterface(bytes4)":"01ffc9a7","symbol()":"95d89b41","tokenURI(uint256)":"c87b56dd","totalAgents()":"c5053712","transferFrom(address,address,uint256)":"23b872dd"},"id":21}